{
  "contractName": "TodoList",
  "abi": [
    {
      "inputs": [],
      "stateMutability": "nonpayable",
      "type": "constructor"
    },
    {
      "anonymous": false,
      "inputs": [
        {
          "indexed": false,
          "internalType": "uint256",
          "name": "id",
          "type": "uint256"
        },
        {
          "indexed": false,
          "internalType": "string",
          "name": "title",
          "type": "string"
        },
        {
          "indexed": false,
          "internalType": "bool",
          "name": "isCompleted",
          "type": "bool"
        }
      ],
      "name": "AddedTodo",
      "type": "event"
    },
    {
      "inputs": [
        {
          "internalType": "uint256",
          "name": "",
          "type": "uint256"
        }
      ],
      "name": "todos",
      "outputs": [
        {
          "internalType": "int256",
          "name": "id",
          "type": "int256"
        },
        {
          "internalType": "string",
          "name": "title",
          "type": "string"
        },
        {
          "internalType": "bool",
          "name": "isCompleted",
          "type": "bool"
        }
      ],
      "stateMutability": "view",
      "type": "function",
      "constant": true
    },
    {
      "inputs": [
        {
          "internalType": "string",
          "name": "title",
          "type": "string"
        }
      ],
      "name": "newTodo",
      "outputs": [],
      "stateMutability": "nonpayable",
      "type": "function"
    },
    {
      "inputs": [],
      "name": "todosCount",
      "outputs": [
        {
          "internalType": "uint256",
          "name": "",
          "type": "uint256"
        }
      ],
      "stateMutability": "view",
      "type": "function",
      "constant": true
    },
    {
      "inputs": [
        {
          "internalType": "uint256",
          "name": "id",
          "type": "uint256"
        }
      ],
      "name": "toggleIsCompleted",
      "outputs": [],
      "stateMutability": "nonpayable",
      "type": "function"
    },
    {
      "inputs": [
        {
          "internalType": "uint256",
          "name": "id",
          "type": "uint256"
        }
      ],
      "name": "deleteTodo",
      "outputs": [],
      "stateMutability": "nonpayable",
      "type": "function"
    }
  ],
  "bytecode": "0x608060405234801561001057600080fd5b5060008081905550610855806100276000396000f3fe608060405234801561001057600080fd5b50600436106100575760003560e01c806327ff7ffb1461005c5780636e3c673814610078578063bc8bc2b414610094578063bc9639b2146100c6578063d4474c92146100e2575b600080fd5b61007660048036038101906100719190610547565b610100565b005b610092600480360381019061008d91906105c6565b6101ae565b005b6100ae60048036038101906100a991906105c6565b6101fb565b6040516100bd939291906106af565b60405180910390f35b6100e060048036038101906100db91906105c6565b6102ca565b005b6100ea61033d565b6040516100f791906106fc565b60405180910390f35b60016040518060600160405280600054815260200183815260200160001515815250908060018154018082558091505060019003906000526020600020906003020160009091909190915060008201518160000155602082015181600101908051906020019061017192919061034a565b5060408201518160020160006101000a81548160ff02191690831515021790555050506000808154809291906101a690610746565b919050555050565b7fffffffffffffffffffffffffffffffffffffffffffffffffffffffffffffffff600182815481106101e3576101e261078f565b5b90600052602060002090600302016000018190555050565b6001818154811061020b57600080fd5b9060005260206000209060030201600091509050806000015490806001018054610234906107ed565b80601f0160208091040260200160405190810160405280929190818152602001828054610260906107ed565b80156102ad5780601f10610282576101008083540402835291602001916102ad565b820191906000526020600020905b81548152906001019060200180831161029057829003601f168201915b5050505050908060020160009054906101000a900460ff16905083565b600181815481106102de576102dd61078f565b5b906000526020600020906003020160020160009054906101000a900460ff1615600182815481106103125761031161078f565b5b906000526020600020906003020160020160006101000a81548160ff02191690831515021790555050565b6000600180549050905090565b828054610356906107ed565b90600052602060002090601f01602090048101928261037857600085556103bf565b82601f1061039157805160ff19168380011785556103bf565b828001600101855582156103bf579182015b828111156103be5782518255916020019190600101906103a3565b5b5090506103cc91906103d0565b5090565b5b808211156103e95760008160009055506001016103d1565b5090565b6000604051905090565b600080fd5b600080fd5b600080fd5b600080fd5b6000601f19601f8301169050919050565b7f4e487b7100000000000000000000000000000000000000000000000000000000600052604160045260246000fd5b6104548261040b565b810181811067ffffffffffffffff821117156104735761047261041c565b5b80604052505050565b60006104866103ed565b9050610492828261044b565b919050565b600067ffffffffffffffff8211156104b2576104b161041c565b5b6104bb8261040b565b9050602081019050919050565b82818337600083830152505050565b60006104ea6104e584610497565b61047c565b90508281526020810184848401111561050657610505610406565b5b6105118482856104c8565b509392505050565b600082601f83011261052e5761052d610401565b5b813561053e8482602086016104d7565b91505092915050565b60006020828403121561055d5761055c6103f7565b5b600082013567ffffffffffffffff81111561057b5761057a6103fc565b5b61058784828501610519565b91505092915050565b6000819050919050565b6105a381610590565b81146105ae57600080fd5b50565b6000813590506105c08161059a565b92915050565b6000602082840312156105dc576105db6103f7565b5b60006105ea848285016105b1565b91505092915050565b6000819050919050565b610606816105f3565b82525050565b600081519050919050565b600082825260208201905092915050565b60005b8381101561064657808201518184015260208101905061062b565b83811115610655576000848401525b50505050565b60006106668261060c565b6106708185610617565b9350610680818560208601610628565b6106898161040b565b840191505092915050565b60008115159050919050565b6106a981610694565b82525050565b60006060820190506106c460008301866105fd565b81810360208301526106d6818561065b565b90506106e560408301846106a0565b949350505050565b6106f681610590565b82525050565b600060208201905061071160008301846106ed565b92915050565b7f4e487b7100000000000000000000000000000000000000000000000000000000600052601160045260246000fd5b6000610751826105f3565b91507f7fffffffffffffffffffffffffffffffffffffffffffffffffffffffffffffff82141561078457610783610717565b5b600182019050919050565b7f4e487b7100000000000000000000000000000000000000000000000000000000600052603260045260246000fd5b7f4e487b7100000000000000000000000000000000000000000000000000000000600052602260045260246000fd5b6000600282049050600182168061080557607f821691505b60208210811415610819576108186107be565b5b5091905056fea2646970667358221220368abf08e0dd9d9655dcb7b518553a391c4ff2ed425de82ea7a8adc8796be3c164736f6c63430008090033",
  "immutableReferences": {},
  "source": "// SPDX-License-Identifier: MIT\r\npragma solidity ^0.8.9;\r\n\r\ncontract TodoList {\r\n    int256 todoId;\r\n    // uint256 deletedTodoCounter;\r\n\r\n    struct Todo {\r\n        int256 id;\r\n        string title;\r\n        bool isCompleted;\r\n    }\r\n\r\n    // mapping(uint256 => Todo) public todos;\r\n    Todo[] public todos;\r\n\r\n    event AddedTodo(uint256 id, string title, bool isCompleted);\r\n\r\n    constructor() {\r\n        todoId = 0;\r\n        // deletedTodoCounter = 0;\r\n        /** \r\n        todos[0] = Todo(0, \"Develop dapp using Flutter\", false);\r\n        todos[1] = Todo(1, \"Read an article about blockchain\", false);\r\n        todoId = 2;\r\n        **/\r\n    }\r\n\r\n    function newTodo(string memory title) external {\r\n        // todos[todoId] = Todo(todoId, title, false);\r\n        // emit AddedTodo(todoId - 1, title, false);\r\n\r\n        todos.push(Todo(todoId, title, false));\r\n        todoId++;\r\n    }\r\n\r\n    function todosCount() external view returns (uint256) {\r\n        // return todoId - deletedTodoCounter;\r\n        return todos.length;\r\n    }\r\n\r\n    function toggleIsCompleted(uint256 id) external {\r\n        // todos[id].isCompleted = !todos[id].isCompleted;\r\n        todos[id].isCompleted = !todos[id].isCompleted;\r\n    }\r\n\r\n    function deleteTodo(uint256 id) external {\r\n        // delete (todos[id]);\r\n        // delete todos[id];\r\n        todos[id].id = -1;\r\n    }\r\n}\r\n",
  "sourcePath": "D:\\Mobile App Development\\projects\\dapps\\dapp_todo_list\\contracts\\TodoList.sol",
  "compiler": {
    "name": "solc",
    "version": "0.8.9+commit.e5eed63a.Emscripten.clang"
  },
  "schemaVersion": "3.4.3",
  "updatedAt": "2021-12-04T11:16:53.457Z",
  "networkType": "ethereum",
  "devdoc": {
    "kind": "dev",
    "methods": {},
    "version": 1
  },
  "userdoc": {
    "kind": "user",
    "methods": {},
    "version": 1
  }
}