{
  "contractName": "TodoList",
  "abi": [
    {
      "inputs": [],
      "stateMutability": "nonpayable",
      "type": "constructor"
    },
    {
      "anonymous": false,
      "inputs": [
        {
          "indexed": false,
          "internalType": "uint256",
          "name": "id",
          "type": "uint256"
        },
        {
          "indexed": false,
          "internalType": "string",
          "name": "title",
          "type": "string"
        },
        {
          "indexed": false,
          "internalType": "bool",
          "name": "isCompleted",
          "type": "bool"
        }
      ],
      "name": "AddedTodo",
      "type": "event"
    },
    {
      "inputs": [
        {
          "internalType": "address",
          "name": "",
          "type": "address"
        },
        {
          "internalType": "uint256",
          "name": "",
          "type": "uint256"
        }
      ],
      "name": "todos",
      "outputs": [
        {
          "internalType": "int256",
          "name": "id",
          "type": "int256"
        },
        {
          "internalType": "string",
          "name": "title",
          "type": "string"
        },
        {
          "internalType": "bool",
          "name": "isCompleted",
          "type": "bool"
        }
      ],
      "stateMutability": "view",
      "type": "function",
      "constant": true
    },
    {
      "inputs": [
        {
          "internalType": "address",
          "name": "add",
          "type": "address"
        },
        {
          "internalType": "string",
          "name": "title",
          "type": "string"
        }
      ],
      "name": "newTodo",
      "outputs": [],
      "stateMutability": "nonpayable",
      "type": "function"
    },
    {
      "inputs": [
        {
          "internalType": "address",
          "name": "add",
          "type": "address"
        }
      ],
      "name": "todosCount",
      "outputs": [
        {
          "internalType": "uint256",
          "name": "",
          "type": "uint256"
        }
      ],
      "stateMutability": "view",
      "type": "function",
      "constant": true
    },
    {
      "inputs": [
        {
          "internalType": "address",
          "name": "add",
          "type": "address"
        },
        {
          "internalType": "uint256",
          "name": "id",
          "type": "uint256"
        }
      ],
      "name": "toggleIsCompleted",
      "outputs": [],
      "stateMutability": "nonpayable",
      "type": "function"
    },
    {
      "inputs": [
        {
          "internalType": "address",
          "name": "add",
          "type": "address"
        },
        {
          "internalType": "uint256",
          "name": "tdId",
          "type": "uint256"
        }
      ],
      "name": "deleteTodo",
      "outputs": [],
      "stateMutability": "nonpayable",
      "type": "function"
    }
  ],
  "bytecode": "0x608060405234801561001057600080fd5b5060008081905550610a5b806100276000396000f3fe608060405234801561001057600080fd5b50600436106100575760003560e01c80632470eb2c1461005c578063428c18891461007857806344e71b82146100aa578063ab298a3d146100c6578063c7f085e4146100f6575b600080fd5b610076600480360381019061007191906105ea565b610112565b005b610092600480360381019061008d91906105ea565b61019d565b6040516100a1939291906106f7565b60405180910390f35b6100c460048036038101906100bf91906105ea565b610279565b005b6100e060048036038101906100db9190610735565b610367565b6040516100ed9190610771565b60405180910390f35b610110600480360381019061010b91906108c1565b6103b3565b005b7fffffffffffffffffffffffffffffffffffffffffffffffffffffffffffffffff600160008473ffffffffffffffffffffffffffffffffffffffff1673ffffffffffffffffffffffffffffffffffffffff16815260200190815260200160002082815481106101845761018361091d565b5b9060005260206000209060030201600001819055505050565b600160205281600052604060002081815481106101b957600080fd5b9060005260206000209060030201600091509150508060000154908060010180546101e39061097b565b80601f016020809104026020016040519081016040528092919081815260200182805461020f9061097b565b801561025c5780601f106102315761010080835404028352916020019161025c565b820191906000526020600020905b81548152906001019060200180831161023f57829003601f168201915b5050505050908060020160009054906101000a900460ff16905083565b600160008373ffffffffffffffffffffffffffffffffffffffff1673ffffffffffffffffffffffffffffffffffffffff16815260200190815260200160002081815481106102ca576102c961091d565b5b906000526020600020906003020160020160009054906101000a900460ff1615600160008473ffffffffffffffffffffffffffffffffffffffff1673ffffffffffffffffffffffffffffffffffffffff168152602001908152602001600020828154811061033b5761033a61091d565b5b906000526020600020906003020160020160006101000a81548160ff0219169083151502179055505050565b6000600160008373ffffffffffffffffffffffffffffffffffffffff1673ffffffffffffffffffffffffffffffffffffffff168152602001908152602001600020805490509050919050565b600160008373ffffffffffffffffffffffffffffffffffffffff1673ffffffffffffffffffffffffffffffffffffffff1681526020019081526020016000206040518060600160405280600054815260200183815260200160001515815250908060018154018082558091505060019003906000526020600020906003020160009091909190915060008201518160000155602082015181600101908051906020019061046192919061049f565b5060408201518160020160006101000a81548160ff0219169083151502179055505050600080815480929190610496906109dc565b91905055505050565b8280546104ab9061097b565b90600052602060002090601f0160209004810192826104cd5760008555610514565b82601f106104e657805160ff1916838001178555610514565b82800160010185558215610514579182015b828111156105135782518255916020019190600101906104f8565b5b5090506105219190610525565b5090565b5b8082111561053e576000816000905550600101610526565b5090565b6000604051905090565b600080fd5b600080fd5b600073ffffffffffffffffffffffffffffffffffffffff82169050919050565b600061058182610556565b9050919050565b61059181610576565b811461059c57600080fd5b50565b6000813590506105ae81610588565b92915050565b6000819050919050565b6105c7816105b4565b81146105d257600080fd5b50565b6000813590506105e4816105be565b92915050565b600080604083850312156106015761060061054c565b5b600061060f8582860161059f565b9250506020610620858286016105d5565b9150509250929050565b6000819050919050565b61063d8161062a565b82525050565b600081519050919050565b600082825260208201905092915050565b60005b8381101561067d578082015181840152602081019050610662565b8381111561068c576000848401525b50505050565b6000601f19601f8301169050919050565b60006106ae82610643565b6106b8818561064e565b93506106c881856020860161065f565b6106d181610692565b840191505092915050565b60008115159050919050565b6106f1816106dc565b82525050565b600060608201905061070c6000830186610634565b818103602083015261071e81856106a3565b905061072d60408301846106e8565b949350505050565b60006020828403121561074b5761074a61054c565b5b60006107598482850161059f565b91505092915050565b61076b816105b4565b82525050565b60006020820190506107866000830184610762565b92915050565b600080fd5b600080fd5b7f4e487b7100000000000000000000000000000000000000000000000000000000600052604160045260246000fd5b6107ce82610692565b810181811067ffffffffffffffff821117156107ed576107ec610796565b5b80604052505050565b6000610800610542565b905061080c82826107c5565b919050565b600067ffffffffffffffff82111561082c5761082b610796565b5b61083582610692565b9050602081019050919050565b82818337600083830152505050565b600061086461085f84610811565b6107f6565b9050828152602081018484840111156108805761087f610791565b5b61088b848285610842565b509392505050565b600082601f8301126108a8576108a761078c565b5b81356108b8848260208601610851565b91505092915050565b600080604083850312156108d8576108d761054c565b5b60006108e68582860161059f565b925050602083013567ffffffffffffffff81111561090757610906610551565b5b61091385828601610893565b9150509250929050565b7f4e487b7100000000000000000000000000000000000000000000000000000000600052603260045260246000fd5b7f4e487b7100000000000000000000000000000000000000000000000000000000600052602260045260246000fd5b6000600282049050600182168061099357607f821691505b602082108114156109a7576109a661094c565b5b50919050565b7f4e487b7100000000000000000000000000000000000000000000000000000000600052601160045260246000fd5b60006109e78261062a565b91507f7fffffffffffffffffffffffffffffffffffffffffffffffffffffffffffffff821415610a1a57610a196109ad565b5b60018201905091905056fea2646970667358221220cea65cb941aa0f83f729412eaec7f428d33091f39f04a11252818aa0fa1e78eb64736f6c63430008090033",
  "immutableReferences": {},
  "source": "// SPDX-License-Identifier: MIT\r\npragma solidity ^0.8.9;\r\n\r\ncontract TodoList {\r\n    int256 todoId;\r\n\r\n    struct Todo {\r\n        int256 id;\r\n        string title;\r\n        bool isCompleted;\r\n    }\r\n\r\n    mapping(address => Todo[]) public todos;\r\n\r\n    event AddedTodo(uint256 id, string title, bool isCompleted);\r\n\r\n    constructor() {\r\n        todoId = 0;\r\n    }\r\n\r\n    function newTodo(address add, string memory title) external {\r\n        todos[add].push(Todo(todoId, title, false));\r\n        todoId++;\r\n    }\r\n\r\n    function todosCount(address add) external view returns (uint256) {\r\n        return todos[add].length;\r\n    }\r\n\r\n    function toggleIsCompleted(address add, uint256 id) external {\r\n        todos[add][id].isCompleted = !todos[add][id].isCompleted;\r\n    }\r\n\r\n    function deleteTodo(address add, uint256 tdId) external {\r\n        todos[add][tdId].id = -1;\r\n    }\r\n}\r\n",
  "sourcePath": "D:\\Mobile App Development\\projects\\dapps\\dapp_todo_list\\contracts\\TodoList.sol",
  "compiler": {
    "name": "solc",
    "version": "0.8.9+commit.e5eed63a.Emscripten.clang"
  },
  "schemaVersion": "3.4.3",
  "updatedAt": "2021-12-06T11:01:31.327Z",
  "networkType": "ethereum",
  "devdoc": {
    "kind": "dev",
    "methods": {},
    "version": 1
  },
  "userdoc": {
    "kind": "user",
    "methods": {},
    "version": 1
  }
}